{"abi":[{"type":"constructor","inputs":[{"name":"name","type":"string","internalType":"string"},{"name":"symbol","type":"string","internalType":"string"}],"stateMutability":"nonpayable"},{"type":"function","name":"approve","inputs":[{"name":"to","type":"address","internalType":"address"},{"name":"tokenId","type":"uint256","internalType":"uint256"}],"outputs":[],"stateMutability":"nonpayable"},{"type":"function","name":"balanceOf","inputs":[{"name":"owner","type":"address","internalType":"address"}],"outputs":[{"name":"","type":"uint256","internalType":"uint256"}],"stateMutability":"view"},{"type":"function","name":"getApproved","inputs":[{"name":"tokenId","type":"uint256","internalType":"uint256"}],"outputs":[{"name":"","type":"address","internalType":"address"}],"stateMutability":"view"},{"type":"function","name":"getCurrentTokenId","inputs":[],"outputs":[{"name":"","type":"uint256","internalType":"uint256"}],"stateMutability":"view"},{"type":"function","name":"isApprovedForAll","inputs":[{"name":"owner","type":"address","internalType":"address"},{"name":"operator","type":"address","internalType":"address"}],"outputs":[{"name":"","type":"bool","internalType":"bool"}],"stateMutability":"view"},{"type":"function","name":"mint","inputs":[{"name":"to","type":"address","internalType":"address"}],"outputs":[{"name":"","type":"uint256","internalType":"uint256"}],"stateMutability":"nonpayable"},{"type":"function","name":"mint","inputs":[{"name":"to","type":"address","internalType":"address"},{"name":"tokenURI","type":"string","internalType":"string"}],"outputs":[{"name":"","type":"uint256","internalType":"uint256"}],"stateMutability":"nonpayable"},{"type":"function","name":"name","inputs":[],"outputs":[{"name":"","type":"string","internalType":"string"}],"stateMutability":"view"},{"type":"function","name":"ownerOf","inputs":[{"name":"tokenId","type":"uint256","internalType":"uint256"}],"outputs":[{"name":"","type":"address","internalType":"address"}],"stateMutability":"view"},{"type":"function","name":"safeTransferFrom","inputs":[{"name":"from","type":"address","internalType":"address"},{"name":"to","type":"address","internalType":"address"},{"name":"tokenId","type":"uint256","internalType":"uint256"}],"outputs":[],"stateMutability":"nonpayable"},{"type":"function","name":"safeTransferFrom","inputs":[{"name":"from","type":"address","internalType":"address"},{"name":"to","type":"address","internalType":"address"},{"name":"tokenId","type":"uint256","internalType":"uint256"},{"name":"data","type":"bytes","internalType":"bytes"}],"outputs":[],"stateMutability":"nonpayable"},{"type":"function","name":"setApprovalForAll","inputs":[{"name":"operator","type":"address","internalType":"address"},{"name":"approved","type":"bool","internalType":"bool"}],"outputs":[],"stateMutability":"nonpayable"},{"type":"function","name":"supportsInterface","inputs":[{"name":"interfaceId","type":"bytes4","internalType":"bytes4"}],"outputs":[{"name":"","type":"bool","internalType":"bool"}],"stateMutability":"view"},{"type":"function","name":"symbol","inputs":[],"outputs":[{"name":"","type":"string","internalType":"string"}],"stateMutability":"view"},{"type":"function","name":"tokenURI","inputs":[{"name":"tokenId","type":"uint256","internalType":"uint256"}],"outputs":[{"name":"","type":"string","internalType":"string"}],"stateMutability":"view"},{"type":"function","name":"transferFrom","inputs":[{"name":"from","type":"address","internalType":"address"},{"name":"to","type":"address","internalType":"address"},{"name":"tokenId","type":"uint256","internalType":"uint256"}],"outputs":[],"stateMutability":"nonpayable"},{"type":"event","name":"Approval","inputs":[{"name":"owner","type":"address","indexed":true,"internalType":"address"},{"name":"approved","type":"address","indexed":true,"internalType":"address"},{"name":"tokenId","type":"uint256","indexed":true,"internalType":"uint256"}],"anonymous":false},{"type":"event","name":"ApprovalForAll","inputs":[{"name":"owner","type":"address","indexed":true,"internalType":"address"},{"name":"operator","type":"address","indexed":true,"internalType":"address"},{"name":"approved","type":"bool","indexed":false,"internalType":"bool"}],"anonymous":false},{"type":"event","name":"BatchMetadataUpdate","inputs":[{"name":"_fromTokenId","type":"uint256","indexed":false,"internalType":"uint256"},{"name":"_toTokenId","type":"uint256","indexed":false,"internalType":"uint256"}],"anonymous":false},{"type":"event","name":"MetadataUpdate","inputs":[{"name":"_tokenId","type":"uint256","indexed":false,"internalType":"uint256"}],"anonymous":false},{"type":"event","name":"Transfer","inputs":[{"name":"from","type":"address","indexed":true,"internalType":"address"},{"name":"to","type":"address","indexed":true,"internalType":"address"},{"name":"tokenId","type":"uint256","indexed":true,"internalType":"uint256"}],"anonymous":false},{"type":"error","name":"ERC721IncorrectOwner","inputs":[{"name":"sender","type":"address","internalType":"address"},{"name":"tokenId","type":"uint256","internalType":"uint256"},{"name":"owner","type":"address","internalType":"address"}]},{"type":"error","name":"ERC721InsufficientApproval","inputs":[{"name":"operator","type":"address","internalType":"address"},{"name":"tokenId","type":"uint256","internalType":"uint256"}]},{"type":"error","name":"ERC721InvalidApprover","inputs":[{"name":"approver","type":"address","internalType":"address"}]},{"type":"error","name":"ERC721InvalidOperator","inputs":[{"name":"operator","type":"address","internalType":"address"}]},{"type":"error","name":"ERC721InvalidOwner","inputs":[{"name":"owner","type":"address","internalType":"address"}]},{"type":"error","name":"ERC721InvalidReceiver","inputs":[{"name":"receiver","type":"address","internalType":"address"}]},{"type":"error","name":"ERC721InvalidSender","inputs":[{"name":"sender","type":"address","internalType":"address"}]},{"type":"error","name":"ERC721NonexistentToken","inputs":[{"name":"tokenId","type":"uint256","internalType":"uint256"}]}],"bytecode":{"object":"0x608060405234801561000f575f5ffd5b506040516115a73803806115a783398101604081905261002e916100f4565b81815f61003b83826101dd565b50600161004882826101dd565b50505f60075550610297915050565b634e487b7160e01b5f52604160045260245ffd5b5f82601f83011261007a575f5ffd5b81516001600160401b0381111561009357610093610057565b604051601f8201601f19908116603f011681016001600160401b03811182821017156100c1576100c1610057565b6040528181528382016020018510156100d8575f5ffd5b8160208501602083015e5f918101602001919091529392505050565b5f5f60408385031215610105575f5ffd5b82516001600160401b0381111561011a575f5ffd5b6101268582860161006b565b602085015190935090506001600160401b03811115610143575f5ffd5b61014f8582860161006b565b9150509250929050565b600181811c9082168061016d57607f821691505b60208210810361018b57634e487b7160e01b5f52602260045260245ffd5b50919050565b601f8211156101d857805f5260205f20601f840160051c810160208510156101b65750805b601f840160051c820191505b818110156101d5575f81556001016101c2565b50505b505050565b81516001600160401b038111156101f6576101f6610057565b61020a816102048454610159565b84610191565b6020601f82116001811461023c575f83156102255750848201515b5f19600385901b1c1916600184901b1784556101d5565b5f84815260208120601f198516915b8281101561026b578785015182556020948501946001909201910161024b565b508482101561028857868401515f19600387901b60f8161c191681555b50505050600190811b01905550565b611303806102a45f395ff3fe608060405234801561000f575f5ffd5b50600436106100fb575f3560e01c80636a62784211610093578063b88d4fde11610063578063b88d4fde14610208578063c87b56dd1461021b578063d0def5211461022e578063e985e9c514610241575f5ffd5b80636a627842146101c757806370a08231146101da57806395d89b41146101ed578063a22cb465146101f5575f5ffd5b806323b872dd116100ce57806323b872dd1461017c57806342842e0e1461018f57806356189236146101a25780636352211e146101b4575f5ffd5b806301ffc9a7146100ff57806306fdde0314610127578063081812fc1461013c578063095ea7b314610167575b5f5ffd5b61011261010d366004610e1e565b610254565b60405190151581526020015b60405180910390f35b61012f61027e565b60405161011e9190610e67565b61014f61014a366004610e79565b61030d565b6040516001600160a01b03909116815260200161011e565b61017a610175366004610eab565b610334565b005b61017a61018a366004610ed3565b610343565b61017a61019d366004610ed3565b6103d1565b6007545b60405190815260200161011e565b61014f6101c2366004610e79565b6103f0565b6101a66101d5366004610f0d565b6103fa565b6101a66101e8366004610f0d565b61041b565b61012f610460565b61017a610203366004610f26565b61046f565b61017a610216366004610fea565b61047a565b61012f610229366004610e79565b610492565b6101a661023c366004611061565b610513565b61011261024f3660046110bf565b610545565b5f6001600160e01b03198216632483248360e11b1480610278575061027882610572565b92915050565b60605f805461028c906110f0565b80601f01602080910402602001604051908101604052809291908181526020018280546102b8906110f0565b80156103035780601f106102da57610100808354040283529160200191610303565b820191905f5260205f20905b8154815290600101906020018083116102e657829003601f168201915b5050505050905090565b5f610317826105c1565b505f828152600460205260409020546001600160a01b0316610278565b61033f8282336105f9565b5050565b6001600160a01b03821661037157604051633250574960e11b81525f60048201526024015b60405180910390fd5b5f61037d838333610606565b9050836001600160a01b0316816001600160a01b0316146103cb576040516364283d7b60e01b81526001600160a01b0380861660048301526024820184905282166044820152606401610368565b50505050565b6103eb83838360405180602001604052805f81525061047a565b505050565b5f610278826105c1565b600780545f9181908361040c83611128565b919050555061027883826106f8565b5f6001600160a01b038216610445576040516322718ad960e21b81525f6004820152602401610368565b506001600160a01b03165f9081526003602052604090205490565b60606001805461028c906110f0565b61033f338383610711565b610485848484610343565b6103cb33858585856107d8565b606061049d826105c1565b505f6104b360408051602081019091525f815290565b90505f6104bf84610900565b905081515f036104d0579392505050565b8051156105025781816040516020016104ea929190611163565b60405160208183030381529060405292505050919050565b61050b8461099f565b949350505050565b600780545f9181908361052583611128565b919050555061053484826106f8565b61053e8184610a0f565b9392505050565b6001600160a01b039182165f90815260056020908152604080832093909416825291909152205460ff1690565b5f6001600160e01b031982166380ac58cd60e01b14806105a257506001600160e01b03198216635b5e139f60e01b145b8061027857506301ffc9a760e01b6001600160e01b0319831614610278565b5f818152600260205260408120546001600160a01b03168061027857604051637e27328960e01b815260048101849052602401610368565b6103eb8383836001610a5e565b5f828152600260205260408120546001600160a01b039081169083161561063257610632818486610b62565b6001600160a01b0381161561066c5761064d5f855f5f610a5e565b6001600160a01b0381165f90815260036020526040902080545f190190555b6001600160a01b0385161561069a576001600160a01b0385165f908152600360205260409020805460010190555b5f8481526002602052604080822080546001600160a01b0319166001600160a01b0389811691821790925591518793918516917fddf252ad1be2c89b69c2b068fc378daa952ba7f163c4a11628f55a4df523b3ef91a4949350505050565b61033f828260405180602001604052805f815250610bc6565b6001600160a01b03831661073a5760405163a9fbf51f60e01b81525f6004820152602401610368565b6001600160a01b03821661076c57604051630b61174360e31b81526001600160a01b0383166004820152602401610368565b6001600160a01b038381165f81815260056020908152604080832094871680845294825291829020805460ff191686151590811790915591519182527f17307eab39ab6107e8899845ad3d59bd9653f200f220920489ca2b5937696c31910160405180910390a3505050565b6001600160a01b0383163b156108f957604051630a85bd0160e11b81526001600160a01b0384169063150b7a029061081a908890889087908790600401611177565b6020604051808303815f875af1925050508015610854575060408051601f3d908101601f19168201909252610851918101906111b3565b60015b6108bb573d808015610881576040519150601f19603f3d011682016040523d82523d5f602084013e610886565b606091505b5080515f036108b357604051633250574960e11b81526001600160a01b0385166004820152602401610368565b805160208201fd5b6001600160e01b03198116630a85bd0160e11b146108f757604051633250574960e11b81526001600160a01b0385166004820152602401610368565b505b5050505050565b5f81815260066020526040902080546060919061091c906110f0565b80601f0160208091040260200160405190810160405280929190818152602001828054610948906110f0565b80156109935780601f1061096a57610100808354040283529160200191610993565b820191905f5260205f20905b81548152906001019060200180831161097657829003601f168201915b50505050509050919050565b60606109aa826105c1565b505f6109c060408051602081019091525f815290565b90505f8151116109de5760405180602001604052805f81525061053e565b806109e884610bdd565b6040516020016109f9929190611163565b6040516020818303038152906040529392505050565b5f828152600660205260409020610a268282611212565b506040518281527ff8e1a15aba9398e019f0b49df1a4fde98ee17ae345cb5f6b5e2c27f5033e8ce79060200160405180910390a15050565b8080610a7257506001600160a01b03821615155b15610b33575f610a81846105c1565b90506001600160a01b03831615801590610aad5750826001600160a01b0316816001600160a01b031614155b8015610ac05750610abe8184610545565b155b15610ae95760405163a9fbf51f60e01b81526001600160a01b0384166004820152602401610368565b8115610b315783856001600160a01b0316826001600160a01b03167f8c5be1e5ebec7d5bd14f71427d1e84f3dd0314c0f7b2291e5b200ac8c7c3b92560405160405180910390a45b505b50505f90815260046020526040902080546001600160a01b0319166001600160a01b0392909216919091179055565b610b6d838383610c6d565b6103eb576001600160a01b038316610b9b57604051637e27328960e01b815260048101829052602401610368565b60405163177e802f60e01b81526001600160a01b038316600482015260248101829052604401610368565b610bd08383610cce565b6103eb335f8585856107d8565b60605f610be983610d2f565b60010190505f8167ffffffffffffffff811115610c0857610c08610f5f565b6040519080825280601f01601f191660200182016040528015610c32576020820181803683370190505b5090508181016020015b5f19016f181899199a1a9b1b9c1cb0b131b232b360811b600a86061a8153600a8504945084610c3c57509392505050565b5f6001600160a01b0383161580159061050b5750826001600160a01b0316846001600160a01b03161480610ca65750610ca68484610545565b8061050b5750505f908152600460205260409020546001600160a01b03908116911614919050565b6001600160a01b038216610cf757604051633250574960e11b81525f6004820152602401610368565b5f610d0383835f610606565b90506001600160a01b038116156103eb576040516339e3563760e11b81525f6004820152602401610368565b5f8072184f03e93ff9f4daa797ed6e38ed64bf6a1f0160401b8310610d6d5772184f03e93ff9f4daa797ed6e38ed64bf6a1f0160401b830492506040015b6d04ee2d6d415b85acef81000000008310610d99576d04ee2d6d415b85acef8100000000830492506020015b662386f26fc100008310610db757662386f26fc10000830492506010015b6305f5e1008310610dcf576305f5e100830492506008015b6127108310610de357612710830492506004015b60648310610df5576064830492506002015b600a83106102785760010192915050565b6001600160e01b031981168114610e1b575f5ffd5b50565b5f60208284031215610e2e575f5ffd5b813561053e81610e06565b5f81518084528060208401602086015e5f602082860101526020601f19601f83011685010191505092915050565b602081525f61053e6020830184610e39565b5f60208284031215610e89575f5ffd5b5035919050565b80356001600160a01b0381168114610ea6575f5ffd5b919050565b5f5f60408385031215610ebc575f5ffd5b610ec583610e90565b946020939093013593505050565b5f5f5f60608486031215610ee5575f5ffd5b610eee84610e90565b9250610efc60208501610e90565b929592945050506040919091013590565b5f60208284031215610f1d575f5ffd5b61053e82610e90565b5f5f60408385031215610f37575f5ffd5b610f4083610e90565b915060208301358015158114610f54575f5ffd5b809150509250929050565b634e487b7160e01b5f52604160045260245ffd5b5f5f67ffffffffffffffff841115610f8d57610f8d610f5f565b50604051601f19601f85018116603f0116810181811067ffffffffffffffff82111715610fbc57610fbc610f5f565b604052838152905080828401851015610fd3575f5ffd5b838360208301375f60208583010152509392505050565b5f5f5f5f60808587031215610ffd575f5ffd5b61100685610e90565b935061101460208601610e90565b925060408501359150606085013567ffffffffffffffff811115611036575f5ffd5b8501601f81018713611046575f5ffd5b61105587823560208401610f73565b91505092959194509250565b5f5f60408385031215611072575f5ffd5b61107b83610e90565b9150602083013567ffffffffffffffff811115611096575f5ffd5b8301601f810185136110a6575f5ffd5b6110b585823560208401610f73565b9150509250929050565b5f5f604083850312156110d0575f5ffd5b6110d983610e90565b91506110e760208401610e90565b90509250929050565b600181811c9082168061110457607f821691505b60208210810361112257634e487b7160e01b5f52602260045260245ffd5b50919050565b5f6001820161114557634e487b7160e01b5f52601160045260245ffd5b5060010190565b5f81518060208401855e5f93019283525090919050565b5f61050b611171838661114c565b8461114c565b6001600160a01b03858116825284166020820152604081018390526080606082018190525f906111a990830184610e39565b9695505050505050565b5f602082840312156111c3575f5ffd5b815161053e81610e06565b601f8211156103eb57805f5260205f20601f840160051c810160208510156111f35750805b601f840160051c820191505b818110156108f9575f81556001016111ff565b815167ffffffffffffffff81111561122c5761122c610f5f565b6112408161123a84546110f0565b846111ce565b6020601f821160018114611272575f831561125b5750848201515b5f19600385901b1c1916600184901b1784556108f9565b5f84815260208120601f198516915b828110156112a15787850151825560209485019460019092019101611281565b50848210156112be57868401515f19600387901b60f8161c191681555b50505050600190811b0190555056fea2646970667358221220c9a91d10c5c793fe42755a7db4460aa3be0047686b10f3c7873512c92c345fbc64736f6c634300081e0033","linkReferences":{}},"methodIdentifiers":{"approve(address,uint256)":"095ea7b3","balanceOf(address)":"70a08231","getApproved(uint256)":"081812fc","getCurrentTokenId()":"56189236","isApprovedForAll(address,address)":"e985e9c5","mint(address)":"6a627842","mint(address,string)":"d0def521","name()":"06fdde03","ownerOf(uint256)":"6352211e","safeTransferFrom(address,address,uint256)":"42842e0e","safeTransferFrom(address,address,uint256,bytes)":"b88d4fde","setApprovalForAll(address,bool)":"a22cb465","supportsInterface(bytes4)":"01ffc9a7","symbol()":"95d89b41","tokenURI(uint256)":"c87b56dd","transferFrom(address,address,uint256)":"23b872dd"},"id":4}